:020000020000FC
:0200000021C01D
:04000C000C949801B7
:040024000C944701F0
:100040000C947300F89408E00EBF0FEF0DBF3F064D
:100050005B4F666D7D077F67777C395E797100E85D
:100060000093610004E00E948C010E94910101E074
:1000700000936E000093700001E00093680001E1BE
:1000800000936B00EEE4F0E01491212E312E412E0E
:10009000512EA12EC12E00E004B9389A399A3A9A0D
:1000A0003B9A0FEF05B90AB9409A41984298439894
:1000B00000E8602E06E0902EB02E0FEF00930101B5
:1000C00001E020E030E040E050E060E070E080E0FF
:1000D00090E0A1E0B0E0C1E0D0E0792E892EE02EE2
:1000E00078940C94710022EB26BD3395383C61F571
:1000F00033270C949D0043954C3331F59160442790
:1001000053955A3009F59260552763956630E1F4AE
:10011000823051F09460662773957A30A9F4986024
:10012000772783950C941B01946066277395743030
:1001300059F498609061772788279061C3FD45C086
:10014000D0FD43C00C94A6000C941B01C0FD29C037
:10015000C230A1F0B33041F0A395AA30A9F7AA2785
:10016000B39590620C941B01A395A13069F7A1E0AF
:10017000BB27C395906290640C941B01A395B23089
:1001800039F0AA3009F7AA27B3959062B230E1F6A8
:10019000A930D1F6A1E0BB27C395906290640C947E
:1001A0001B01B33041F0A395AA3071F6AA27B3958D
:1001B0009062BA3049F6A395A230E9F5A1E0BB27D9
:1001C000C395906290640C941B01C0FD1BC0B330BA
:1001D00041F0A395AA3079F5AA27B3959062BA3079
:1001E00051F5A395A23039F5A1E0BB27C3959062E4
:1001F0009064D13001F5C330F1F4DD27C1E090689F
:100200000C941B01B33041F0A395AA30A1F4AA27A6
:10021000B3959062BA3079F4A395A13061F4A1E06E
:10022000BB27C39590629064CA3029F4CC27D3953C
:1002300090680C941B0111E0E11649F012E0E11600
:10024000A9F014E0E11609F118E0E116F9F088943C
:10025000001F003109F401E000FD2BB801FD3BB89F
:1002600002FD4BB803FD5BB808B918958894001FD0
:10027000003109F401E000FD9BB801FDABB802FDBF
:10028000BBB803FDCBB808B91895189518951F93FE
:1002900090FF0C945001752E0E94B301212E9E7F79
:1002A00091FF0C945801762E0E94B301312E9D7F50
:1002B00092FF0C946001772E0E94B301412E9B7F28
:1002C00093FF0C946801782E0E94B301512E977F02
:1002D00094FF0C9470017A2E0E94B301912E9F7EA0
:1002E00095FF0C9478017B2E0E94B301A12E9F7D77
:1002F00096FF0C9480017C2E0E94B301B12E9F7B4F
:1003000097FF0C948A017D2E0E94B301C12E9F7B22
:100310000C948A011F91189503E005BD02EB06BD00
:10032000089504E00093B10004E60093B20008953C
:100330000F9303B100FF0AC001FF09C002FF08C00C
:1003400003FF07C004FF06C00F911895FDCFFCCF37
:10035000FBCFFACFEE0CE4FC0C94B0010C94A4019A
:1003600011E0E12EF1CFEEE4F0E0781421F0839477
:0C03700031960C94B50114918824089576
:00000001FF
