:020000020000FC
:0200000021C01D
:04000C000C944B0203
:040024000C94FA013D
:100040000C948600F89408E00EBF0FEF0DBF3F063A
:100050005B4F666D7D077F67777C395E797100E85D
:100060000093610004E0009361000E943F020E943F
:10007000440201E000936E000093700001E00093E1
:1000800068000FE100936B00EEE4F0E01491212E84
:10009000312E412E512EA12EC12E00E004B9389AE6
:1000A000399A3A9A3B9A259A0FEF289A299A2A9ACE
:1000B0002B9A2C9A0AB9409A41984298439800E8A2
:1000C000602E06E0902EB02E01E00093000120E0AB
:1000D0002093010120930201209303012093040146
:1000E0002093050120930E0130E040E050E060E0F5
:1000F00070E080E090E0A1E0B0E0C1E0D0E0792ED7
:10010000892EE02EF92E78940C94840022EB26BDE3
:100110003395343639F4FF92FF24F394F0920101C1
:10012000FF24FF90383C71F5FF92FF24F09201010B
:10013000FF90332743954C3329F59160442753951D
:100140005A3001F59260552763956630D9F48230B4
:1001500051F09460662773957A30A1F49860772700
:1001600083950C943901946066277395743051F42B
:100170009860906177278827C3FD45C0D0FD43C0B4
:100180000C94C4000C943901C0FD29C0C230A1F008
:10019000B33041F0A395AA30A9F7AA27B39590628E
:1001A0000C943901A395A13069F7A1E0BB27C39551
:1001B000906290640C943901A395B23039F0AA3062
:1001C00009F7AA27B3959062B230E1F6A930D1F6CB
:1001D000A1E0BB27C395906290640C943901B330C1
:1001E00041F0A395AA3071F6AA27B3959062BA3070
:1001F00049F6A395A230E9F5A1E0BB27C39590622B
:1002000090640C943901C0FD1BC0B33041F0A3953C
:10021000AA3079F5AA27B3959062BA3051F5A39523
:10022000A23039F5A1E0BB27C39590629064D1302C
:1002300001F5C330F1F4DD27C1E090680C94390179
:10024000B33041F0A395AA30A1F4AA27B3959062E8
:10025000BA3079F4A395A13061F4A1E0BB27C3952E
:1002600090629064CA3029F4CC27D39590680C949E
:10027000390120910E0121FD0C944D01E0FC0C94FC
:100280007001E1FC0C947F01E2FC0C948E01E3FC14
:100290000C94A801E4FC0C94C5010F931F932F93B9
:1002A0003F930091020110910301209104013091CC
:1002B0000501501779F4611769F4721759F483171F
:1002C00049F4403039F42D9A3F912F911F910F91AD
:1002D0000C943E013F912F911F910F910C943E0180
:1002E0008894001F003109F401E000FD2BB801FDE6
:1002F0003BB802FD4BB803FD5BB808B9189588946C
:10030000001F003109F401E000FD9BB801FDABB80E
:1003100002FDBBB803FDCBB808B918952F93209107
:10032000010120FF0C94A4018894001F003109F4FE
:1003300001E000FD2BB801FD3BB802FD4BB803FD09
:100340005BB808B92F91189520E02BB92F9118951B
:100350002F932091010120FF0C94BE018894001F6F
:10036000003109F401E000FD9BB801FDABB802FDCE
:10037000BBB803FDCBB808B92F91189520E02BB975
:100380002F9118952F910C948E012F9320910E018F
:1003900021FF0C94C2012F912F923F924F925F92B6
:1003A0002F93209006013090070140900801509053
:1003B00009012091010120FF0C94F2018894001F93
:1003C000003109F401E000FD2BB801FD3BB802FD4E
:1003D0004BB803FD5BB808B92F915F904F903F90E9
:1003E0002F90189520E02BB92F915F904F903F9060
:1003F0002F9018951F9390FF0C940302752E0E9466
:10040000C604212E9E7F91FF0C940B02762E0E9433
:10041000C604312E9D7F92FF0C941302772E0E940A
:10042000C604412E9B7F93FF0C941B02782E0E94E2
:10043000C604512E977F94FF0C9423027A2E0E94BB
:10044000C604912E9F7E95FF0C942B027B2E0E945A
:10045000C604A12E9F7D96FF0C9433027C2E0E9431
:10046000C604B12E9F7B97FF0C943D027D2E0E9407
:10047000C604C12E9F7B0C943D021F91189503E08A
:1004800005BD02EB06BD089504E00093B10004E64B
:100490000093B20008950F931F9303B100FF0C94D3
:1004A000600201FF0C94B90202FF0C94A90303FF40
:1004B0000C948C0404FF0C94A4041F910F911895C4
:1004C000E0FC0C946F02E1FC0C945D02E2FC0C94E5
:1004D0005D02E3FC0C945D02E4FC0C9472022D9826
:1004E0000C945D022F9320910E0121FD0C94B30218
:1004F00020FF0C94B00250930201609303017093AB
:100500000401809305012F923F924F925F92752EC6
:100510000E94C604212E762E0E94C604312E772E0C
:100520000E94C604412E782E0E94C604512E2092AD
:1005300006013092070140920801509209015F9034
:100540004F903F902F9050910A0160910B01709154
:100550000C0180910D019F6022602E7F20930E017F
:100560002F910C945D022C7F20930E012F910C94FF
:100570005D02E0FC0C945D02E1FC0C945D02E2FC87
:100580000C94C802E3FC0C94F302E4FC0C946403A6
:100590002F932091000120FD0C94D0020C94DD02D9
:1005A0002F91916053955A3031F59260552763959C
:1005B000663009F566270C945D022F91946073955F
:1005C000823051F07A30B9F498607727839586307D
:1005D00091F488270C945D02743069F49860772751
:1005E00088270C945D022F932091000120FD0C942C
:1005F000FD020C9414030C945D022F91BB27A1E023
:10060000906190629064C395D13039F0CA3099F707
:100610009068CC27D3950C945D02C330D9F59068CF
:10062000C1E0DD270C945D022F919061A395D1303C
:1006300071F0C3FD0C942703C23019F1B33099F166
:10064000AA3041F5AA27B39590620C945D02B330AD
:1006500039F0AA30F9F4AA27B39590620C945D02A0
:10066000C0FF0C943A030C9435039062A1E0BB27C1
:100670000C945D02A23071F49062A1E0BB270C944F
:100680005D02B23049F0AA3029F4AA279062B395EE
:100690000C945D020C945D02A930E1F7A1E0906238
:1006A000BB270C945D02C0FF0C9458030C945D03AF
:1006B0009062A1E0BB270C945D02A23059F79062D2
:1006C000A1E0BB270C945D022F9320910E0121FD28
:1006D0000C94810320FD0C947A0350930A016093DB
:1006E0000B0170930C0180930D01239520930E0153
:1006F0000C947A032091000120FD0C9484030C9447
:1007000093032F910C945D022F91916053955A3071
:1007100041F4926055276395663019F466270C946E
:100720005D020C945D022F9194607395823051F0BC
:100730007A30B9F7986077278395863091F78827C4
:100740000C945D02743069F79860772788270C94C1
:100750005D02E0FC0C945D02E1FC0C945D02E2FCA5
:100760000C94B803E3FC0C94DF03E4FC0C944F04FA
:100770002F932091000120FD0C94C0030C94CD0315
:100780002F9191605A955F3FC1F4926059E06A954C
:100790006F3F99F465E00C945D022F9194607A9517
:1007A0007F3F59F498608A958F3F19F079E00C9457
:1007B0005D0282E073E00C945D020C945D022F9365
:1007C0002091000120FD0C94E7030C94FF032F916E
:1007D000BB27A1E0906190629064CA95D0FF41F080
:1007E000C7FF0C945D029068C9E0DA950C945D0235
:1007F000C03019F79068C2E0D1E00C945D022F91EF
:100800009061AA95D13071F0C3FD0C941204C230EE
:1008100019F1B03089F1AF3F81F6A9E0BA95906245
:100820000C945D02B03039F0AF3FB9F5A9E0BA954C
:1008300090620C945D02A03081F5C0FF0C942204FC
:100840000C9427049062A1E0B3E00C945D029062E6
:10085000AA27B3E00C945D02B03039F0AF3FE9F461
:10086000A9E09062BA950C945D02A030B1F4A8E0C2
:100870009062B2E00C945D02A03079F4C0FF0C9459
:1008800043040C9448049062AA27B3E00C945D02E0
:100890009062A1E0B3E00C945D020C945D022F9392
:1008A00020910E0121FD0C94810320FD0C94650420
:1008B00050930A0160930B0170930C0180930D011A
:1008C000239520930E010C9465042091000120FDD6
:1008D0000C946F040C947C042F910C945D022F9166
:1008E00091605A955F3FC9F6926059E06A956F3FF3
:1008F000A1F665E00C945D022F9194607A957F3F9C
:1009000061F698608A958F3F19F079E00C945D024A
:1009100082E073E00C945D02E0FC0C945D02E1FC6B
:100920000C945D02E2FC0C949904E3FC0C94990491
:10093000E4FC2F9320910001220F22FD21E020935F
:1009400000012F910C945D02EE0CE5FC0C94AA04BE
:100950000C945D022F9320910E0120FD0C94B504A0
:100960002F9111E0E12E0C945D02222720930E01BD
:100970002F9150910A0160910B0170910C018091AF
:100980000D019F6011E0E12E0C945D02EEE4F0E0B9
:10099000781421F0839431960C94C804149188241F
:0209A0000895B8
:00000001FF
