:020000020000FC
:0200000021C01D
:04000C000C94CF0180
:040024000C947E01B9
:100040000C947700F89408E00EBF0FEF0DBF3F0649
:100050005B4F666D7D077F67777C395E797100E85D
:100060000093610004E0009361000E94C3010E94BC
:10007000C80101E000936E000093700001E000935E
:1000800068000FE100936B00EEE4F0E01491212E84
:10009000312E412E512EA12EC12E00E004B9389AE6
:1000A000399A3A9A3B9A0FEF05B90AB9409A4198A2
:1000B0004298439800E8602E06E0902EB02E01E0B2
:1000C0000093000120E02093010130E040E050E087
:1000D00060E070E080E090E0A1E0B0E0C1E0D0E05E
:1000E000792E892EE02EF92E78940C94750022EB4F
:1000F00026BD3395343639F4FF92FF24F394F09201
:100100000101FF24FF90383C71F5FF92FF24F0922B
:100110000101FF90332743954C3329F59160442723
:1001200053955A3001F59260552763956630D9F49E
:10013000823051F09460662773957A30A1F498600C
:10014000772783950C942A01946066277395743001
:1001500051F49860906177278827C3FD45C0D0FD92
:1001600043C00C94B5000C942A01C0FD29C0C230D4
:10017000A1F0B33041F0A395AA30A9F7AA27B3950F
:1001800090620C942A01A395A13069F7A1E0BB27E6
:10019000C395906290640C942A01A395B23039F013
:1001A000AA3009F7AA27B3959062B230E1F6A930D8
:1001B000D1F6A1E0BB27C395906290640C942A010C
:1001C000B33041F0A395AA3071F6AA27B395906297
:1001D000BA3049F6A395A230E9F5A1E0BB27C39553
:1001E000906290640C942A01C0FD1BC0B33041F0B2
:1001F000A395AA3079F5AA27B3959062BA3051F544
:10020000A395A23039F5A1E0BB27C3959062906415
:10021000D13001F5C330F1F4DD27C1E090680C94D2
:100220002A01B33041F0A395AA30A1F4AA27B395CF
:100230009062BA3079F4A395A13061F4A1E0BB27B4
:10024000C39590629064CA3029F4CC27D395906806
:100250000C942A0111E0E11629F012E0E11689F070
:100260000C9450018894001F003109F401E000FD56
:100270002BB801FD3BB802FD4BB803FD5BB808B9D4
:1002800018958894001F003109F401E000FD9BB827
:1002900001FDABB802FDBBB803FDCBB808B918959A
:1002A00014E0E11619F018E0E11639F12F932091CE
:1002B000010120FF0C946C018894001F003109F4A7
:1002C00001E000FD2BB801FD3BB802FD4BB803FD7A
:1002D0005BB808B92F91189520E08894001F003171
:1002E00009F401E000FD2BB901FD2BB902FD2BB98A
:1002F00003FD2BB908B92F91189518951F9390FFFE
:100300000C948701752E0E946F02212E9E7F91FF13
:100310000C948F01762E0E946F02312E9D7F92FFEA
:100320000C949701772E0E946F02412E9B7F93FFC2
:100330000C949F01782E0E946F02512E977F94FF9C
:100340000C94A7017A2E0E946F02912E9F7E95FF3A
:100350000C94AF017B2E0E946F02A12E9F7D96FF11
:100360000C94B7017C2E0E946F02B12E9F7B97FFE9
:100370000C94C1017D2E0E946F02C12E9F7B0C94B4
:10038000C1011F91189503E005BD02EB06BD08955C
:1003900004E00093B10004E60093B20008950F93C7
:1003A0001F9303B100FF0BC001FF0AC002FF43C04F
:1003B00003FF74C004FF8AC01F910F911895FCCFF2
:1003C000E0FC0C94DC01E1FC0C94DC01E2FC0C94FC
:1003D000EC01E3FC0C9417022F932091000120FD07
:1003E0000C94F4010C9401022F91916053955A30B2
:1003F00019F79260552763956630F1F666270C94DD
:10040000DC012F9194607395823051F07A30A1F61F
:10041000986077278395863079F688270C94DC01DD
:10042000743051F69860772788270C94DC010C947F
:10043000DC010C94DC01E0FC0C94DC01E1FC0C948C
:10044000DC01E2FC0C942702E3FC0C944C022F9399
:100450002091000120FD0C942F020C943C022F915E
:1004600091605A955F3F29F7926059E06A956F3F16
:1004700001F765E00C94DC012F9194607A957F3F41
:10048000C1F698608A958F3F19F079E00C94DC01F1
:1004900082E073E00C94DC010C94DC01E0FC0C9431
:1004A000DC01E1FC0C94DC01E2FC0C945A02E3FC5C
:1004B0000C945A022F9320910001220F23FD21E07A
:1004C000209300012F910C94DC0176CFEE0CE4FC1C
:1004D0000C946C020C94DC0111E0E12E6DCFEEE483
:1004E000F0E0781421F0839431960C947102149109
:0404F00088240895BF
:00000001FF
